{
  "contractName": "FederatedModel",
  "abi": [
    {
      "inputs": [
        {
          "internalType": "uint256",
          "name": "id",
          "type": "uint256"
        },
        {
          "internalType": "uint256",
          "name": "od",
          "type": "uint256"
        },
        {
          "internalType": "int256",
          "name": "learning_rate_",
          "type": "int256"
        },
        {
          "internalType": "int256",
          "name": "precision_",
          "type": "int256"
        },
        {
          "internalType": "uint256",
          "name": "batchSize_",
          "type": "uint256"
        },
        {
          "internalType": "uint256",
          "name": "updateInterval_",
          "type": "uint256"
        }
      ],
      "stateMutability": "nonpayable",
      "type": "constructor"
    },
    {
      "anonymous": false,
      "inputs": [
        {
          "indexed": false,
          "internalType": "uint256",
          "name": "result",
          "type": "uint256"
        }
      ],
      "name": "RunMovingAverage",
      "type": "event"
    },
    {
      "inputs": [],
      "name": "administrator",
      "outputs": [
        {
          "internalType": "address",
          "name": "",
          "type": "address"
        }
      ],
      "stateMutability": "view",
      "type": "function",
      "constant": true
    },
    {
      "inputs": [
        {
          "internalType": "address",
          "name": "verifier_address",
          "type": "address"
        }
      ],
      "name": "updateVerifier",
      "outputs": [],
      "stateMutability": "nonpayable",
      "type": "function"
    },
    {
      "inputs": [
        {
          "internalType": "int256[][]",
          "name": "local_weights",
          "type": "int256[][]"
        },
        {
          "internalType": "int256[]",
          "name": "local_bias",
          "type": "int256[]"
        }
      ],
      "name": "initModel",
      "outputs": [],
      "stateMutability": "nonpayable",
      "type": "function"
    },
    {
      "inputs": [],
      "name": "map_temp_to_global",
      "outputs": [],
      "stateMutability": "nonpayable",
      "type": "function"
    },
    {
      "inputs": [],
      "name": "get_global_weights",
      "outputs": [
        {
          "internalType": "int256[][]",
          "name": "",
          "type": "int256[][]"
        }
      ],
      "stateMutability": "view",
      "type": "function",
      "constant": true
    },
    {
      "inputs": [],
      "name": "get_global_bias",
      "outputs": [
        {
          "internalType": "int256[]",
          "name": "",
          "type": "int256[]"
        }
      ],
      "stateMutability": "view",
      "type": "function",
      "constant": true
    },
    {
      "inputs": [],
      "name": "time_until_next_update_round",
      "outputs": [
        {
          "internalType": "int256",
          "name": "",
          "type": "int256"
        }
      ],
      "stateMutability": "nonpayable",
      "type": "function"
    },
    {
      "inputs": [],
      "name": "end_update_round",
      "outputs": [],
      "stateMutability": "nonpayable",
      "type": "function"
    },
    {
      "inputs": [],
      "name": "is_Training",
      "outputs": [
        {
          "internalType": "bool",
          "name": "",
          "type": "bool"
        }
      ],
      "stateMutability": "nonpayable",
      "type": "function"
    },
    {
      "inputs": [],
      "name": "roundUpdateOutstanding",
      "outputs": [
        {
          "internalType": "bool",
          "name": "",
          "type": "bool"
        }
      ],
      "stateMutability": "nonpayable",
      "type": "function"
    },
    {
      "inputs": [],
      "name": "getTempGlobalAndParticipants",
      "outputs": [
        {
          "internalType": "int256[][]",
          "name": "",
          "type": "int256[][]"
        },
        {
          "internalType": "int256[]",
          "name": "",
          "type": "int256[]"
        },
        {
          "internalType": "uint256",
          "name": "",
          "type": "uint256"
        }
      ],
      "stateMutability": "view",
      "type": "function",
      "constant": true
    },
    {
      "inputs": [
        {
          "internalType": "int256[][]",
          "name": "newWeights",
          "type": "int256[][]"
        },
        {
          "internalType": "int256[]",
          "name": "newBias",
          "type": "int256[]"
        }
      ],
      "name": "setTempGlobal",
      "outputs": [],
      "stateMutability": "nonpayable",
      "type": "function"
    },
    {
      "inputs": [
        {
          "internalType": "int256[][]",
          "name": "local_weights",
          "type": "int256[][]"
        },
        {
          "internalType": "int256[]",
          "name": "local_bias",
          "type": "int256[]"
        },
        {
          "internalType": "uint256[2]",
          "name": "a",
          "type": "uint256[2]"
        },
        {
          "internalType": "uint256[2][2]",
          "name": "b",
          "type": "uint256[2][2]"
        },
        {
          "internalType": "uint256[2]",
          "name": "c",
          "type": "uint256[2]"
        },
        {
          "internalType": "uint256[183]",
          "name": "input",
          "type": "uint256[183]"
        }
      ],
      "name": "update_with_proof",
      "outputs": [],
      "stateMutability": "nonpayable",
      "type": "function"
    },
    {
      "inputs": [
        {
          "internalType": "int256[][]",
          "name": "local_weights",
          "type": "int256[][]"
        },
        {
          "internalType": "int256[]",
          "name": "local_bias",
          "type": "int256[]"
        }
      ],
      "name": "update_without_proof",
      "outputs": [],
      "stateMutability": "nonpayable",
      "type": "function"
    },
    {
      "inputs": [],
      "name": "participantsCount",
      "outputs": [
        {
          "internalType": "uint256",
          "name": "",
          "type": "uint256"
        }
      ],
      "stateMutability": "view",
      "type": "function",
      "constant": true
    },
    {
      "inputs": [
        {
          "internalType": "int256[][]",
          "name": "new_weights",
          "type": "int256[][]"
        }
      ],
      "name": "movingAverageWeights",
      "outputs": [],
      "stateMutability": "nonpayable",
      "type": "function"
    },
    {
      "inputs": [
        {
          "internalType": "int256[]",
          "name": "new_bias",
          "type": "int256[]"
        }
      ],
      "name": "movingAverageBias",
      "outputs": [],
      "stateMutability": "nonpayable",
      "type": "function"
    },
    {
      "inputs": [
        {
          "internalType": "int256",
          "name": "newLearnignRate",
          "type": "int256"
        }
      ],
      "name": "changeLearningRate",
      "outputs": [],
      "stateMutability": "nonpayable",
      "type": "function"
    },
    {
      "inputs": [],
      "name": "getLearningRate",
      "outputs": [
        {
          "internalType": "int256",
          "name": "",
          "type": "int256"
        }
      ],
      "stateMutability": "nonpayable",
      "type": "function"
    },
    {
      "inputs": [],
      "name": "getBatchSize",
      "outputs": [
        {
          "internalType": "uint256",
          "name": "",
          "type": "uint256"
        }
      ],
      "stateMutability": "nonpayable",
      "type": "function"
    },
    {
      "inputs": [],
      "name": "getRoundNumber",
      "outputs": [
        {
          "internalType": "uint256",
          "name": "",
          "type": "uint256"
        }
      ],
      "stateMutability": "nonpayable",
      "type": "function"
    },
    {
      "inputs": [],
      "name": "getInputDimension",
      "outputs": [
        {
          "internalType": "uint256",
          "name": "",
          "type": "uint256"
        }
      ],
      "stateMutability": "nonpayable",
      "type": "function"
    },
    {
      "inputs": [],
      "name": "getOutputDimension",
      "outputs": [
        {
          "internalType": "uint256",
          "name": "",
          "type": "uint256"
        }
      ],
      "stateMutability": "nonpayable",
      "type": "function"
    },
    {
      "inputs": [],
      "name": "getPrecision",
      "outputs": [
        {
          "internalType": "int256",
          "name": "",
          "type": "int256"
        }
      ],
      "stateMutability": "nonpayable",
      "type": "function"
    },
    {
      "inputs": [
        {
          "internalType": "int256",
          "name": "newPrecision",
          "type": "int256"
        }
      ],
      "name": "changePrecision",
      "outputs": [],
      "stateMutability": "nonpayable",
      "type": "function"
    },
    {
      "inputs": [
        {
          "internalType": "uint256[2]",
          "name": "a",
          "type": "uint256[2]"
        },
        {
          "internalType": "uint256[2][2]",
          "name": "b",
          "type": "uint256[2][2]"
        },
        {
          "internalType": "uint256[2]",
          "name": "c",
          "type": "uint256[2]"
        },
        {
          "internalType": "uint256[183]",
          "name": "input",
          "type": "uint256[183]"
        }
      ],
      "name": "checkZKP",
      "outputs": [
        {
          "internalType": "bool",
          "name": "",
          "type": "bool"
        }
      ],
      "stateMutability": "nonpayable",
      "type": "function"
    },
    {
      "inputs": [],
      "name": "stopTraining",
      "outputs": [],
      "stateMutability": "nonpayable",
      "type": "function"
    },
    {
      "inputs": [],
      "name": "startTraining",
      "outputs": [],
      "stateMutability": "nonpayable",
      "type": "function"
    }
  ],
  "bytecode": "0x6080604052600a805460ff19166001179055600f805460ff60a01b191690553480156200002b57600080fd5b5060405162002645380380620026458339810160408190526200004e916200009c565b6007849055600080546001600160a01b0319163217905560088590556009869055600e8290556005839055620000858142620000e6565b600c55600d5550506001600655506200010b915050565b60008060008060008060c08789031215620000b5578182fd5b865195506020870151945060408701519350606087015192506080870151915060a087015190509295509295509295565b600082198211156200010657634e487b7160e01b81526011600452602481fd5b500190565b61252a806200011b6000396000f3fe608060405234801561001057600080fd5b50600436106101c45760003560e01c8063a011a5b7116100f9578063d661016a11610097578063e3a8a16211610071578063e3a8a16214610324578063f53d0a8e14610337578063fb4e20ea1461034c578063ff08cde11461035f576101c4565b8063d661016a14610301578063dbe0cd7714610309578063dd60c8981461031c576101c4565b8063bd30222e116100d3578063bd30222e146102cb578063c3cd313b146102de578063d41998cc146102e6578063d5d1c6ee146102f9576101c4565b8063a011a5b7146102b3578063a25f55d4146102bb578063a74c900e146102c3576101c4565b806364ace1ee1161016657806395c9290a1161014057806395c9290a146102705780639670c0bc1461028357806397fc007c1461028b57806399b16c5c1461029e576101c4565b806364ace1ee146102405780636d05533b146102535780637c1cc4d21461025b576101c4565b806349cd87c4116101a257806349cd87c4146101f9578063518cae2a1461020e578063580431411461021657806362f0352814610229576101c4565b8063091bf334146101c95780630cde0456146101d3578063211b1e22146101f1575b600080fd5b6101d1610372565b005b6101db610589565b6040516101e8919061226e565b60405180910390f35b6101db610590565b610201610596565b6040516101e891906121f1565b6101d16105ee565b6101d16102243660046120a5565b610611565b61023161062d565b6040516101e8939291906121bb565b6101d161024e366004611fb3565b61072c565b6101db610908565b61026361091d565b6040516101e89190612263565b6101d161027e3660046120a5565b610926565b6101db610942565b6101d1610299366004611d75565b610948565b6102a661096a565b6040516101e891906121a8565b6101db610a03565b6101db610a09565b610263610a0f565b6101d16102d9366004611e43565b610b0b565b6101db610dc5565b6101d16102f4366004611ddb565b610dcb565b6101d1610ff6565b6101d161101c565b6101d1610317366004611ddb565b611232565b6101db611464565b6101d1610332366004611f04565b61146a565b61033f611491565b6040516101e89190612194565b61026361035a366004611fda565b6114a0565b6101d161036d366004611d9c565b61157e565b6000546001600160a01b0316321461038957600080fd5b61039560046000611b0a565b6103a160036000611b28565b60005b600154811015610506576000600182815481106103d157634e487b7160e01b600052603260045260246000fd5b6000918252602090912001546001600160401b0381111561040257634e487b7160e01b600052604160045260246000fd5b60405190808252806020026020018201604052801561042b578160200160208202803683370190505b5090506001828154811061044f57634e487b7160e01b600052603260045260246000fd5b906000526020600020018054806020026020016040519081016040528092919081815260200182805480156104a357602002820191906000526020600020905b81548152602001906001019080831161048f575b50506003805460018101825560009190915284519495506104f1947fc2575a0e9e593c00f959f8c92f12db2869c3395a3b0502d05e2516446f71f85b90910193506020860192509050611b46565b505080806104fe9061246d565b9150506103a4565b5060005b6002548110156105865760006002828154811061053757634e487b7160e01b600052603260045260246000fd5b60009182526020822001546004805460018101825592527f8a35acfbc15ff81a39ae7d344fd709f28e8600b4aa8c65c6b64bfe7fe36bd19b90910155508061057e8161246d565b91505061050a565b50565b6006545b90565b60085490565b606060048054806020026020016040519081016040528092919081815260200182805480156105e457602002820191906000526020600020905b8154815260200190600101908083116105d0575b5050505050905090565b6000546001600160a01b0316321461060557600080fd5b600a805460ff19169055565b6000546001600160a01b0316321461062857600080fd5b600555565b606080600060016002600b8054905082805480602002602001604051908101604052809291908181526020016000905b828210156106c9576000848152602090819020830180546040805182850281018501909152818152928301828280156106b557602002820191906000526020600020905b8154815260200190600101908083116106a1575b50505050508152602001906001019061065d565b5050505092508180548060200260200160405190810160405280929190818152602001828054801561071a57602002820191906000526020600020905b815481526020019060010190808311610706575b50505050509150925092509250909192565b6000306001600160a01b031663dd60c8986040518163ffffffff1660e01b815260040160206040518083038186803b15801561076757600080fd5b505afa15801561077b573d6000803e3d6000fd5b505050506040513d601f19601f8201168201806040525081019061079f91906120bd565b905060008113156109035780600114156108305760005b8281101561082a5760008484838181106107e057634e487b7160e01b600052603260045260246000fd5b905060200201359050806002838154811061080b57634e487b7160e01b600052603260045260246000fd5b60009182526020909120015550806108228161246d565b9150506107b6565b50610903565b60005b828110156109015760006002828154811061085e57634e487b7160e01b600052603260045260246000fd5b90600052602060002001549050600085858481811061088d57634e487b7160e01b600052603260045260246000fd5b90506020020135905060008483836108a5919061242e565b6108af91906123f4565b6108b9908461239b565b905080600285815481106108dd57634e487b7160e01b600052603260045260246000fd5b906000526020600020018190555050505080806108f99061246d565b915050610833565b505b505050565b600042600c54610918919061242e565b905090565b600a5460ff1690565b6000546001600160a01b0316321461093d57600080fd5b600755565b60055490565b600f80546001600160a01b0319166001600160a01b0392909216919091179055565b60606003805480602002602001604051908101604052809291908181526020016000905b828210156109fa576000848152602090819020830180546040805182850281018501909152818152928301828280156109e657602002820191906000526020600020905b8154815260200190600101908083116109d2575b50505050508152602001906001019061098e565b50505050905090565b60095490565b600e5490565b600f54600090600160a01b900460ff1615610b035732600160005b306001600160a01b031663dd60c8986040518163ffffffff1660e01b815260040160206040518083038186803b158015610a6357600080fd5b505afa158015610a77573d6000803e3d6000fd5b505050506040513d601f19601f82011682018060405250810190610a9b91906120bd565b811015610af957600b8181548110610ac357634e487b7160e01b600052603260045260246000fd5b6000918252602090912001546001600160a01b0384811691161415610ae757600091505b80610af18161246d565b915050610a2a565b50915061058d9050565b50600061058d565b600a5460ff16610b1a57600080fd5b604051637da7107560e11b8152309063fb4e20ea90610b43908790879087908790600401612204565b602060405180830381600087803b158015610b5d57600080fd5b505af1158015610b71573d6000803e3d6000fd5b505050506040513d601f19601f82011682018060405250810190610b959190612085565b610b9e57600080fd5b60408051631bac191360e31b8152905160019182913291309163dd60c89891600480820192602092909190829003018186803b158015610bdd57600080fd5b505afa158015610bf1573d6000803e3d6000fd5b505050506040513d601f19601f82011682018060405250810190610c1591906120bd565b610c7e57600b80546001810182556000919091526000805160206124d58339815191520180546001600160a01b0319166001600160a01b0383161790556040516000805160206124b583398151915290610c719060649061226e565b60405180910390a1610db8565b60005b306001600160a01b031663dd60c8986040518163ffffffff1660e01b815260040160206040518083038186803b158015610cba57600080fd5b505afa158015610cce573d6000803e3d6000fd5b505050506040513d601f19601f82011682018060405250810190610cf291906120bd565b811015610d5057600b8181548110610d1a57634e487b7160e01b600052603260045260246000fd5b6000918252602090912001546001600160a01b0383811691161415610d3e57600093505b80610d488161246d565b915050610c81565b508215610db857600b80546001810182556000919091526000805160206124d58339815191520180546001600160a01b0319166001600160a01b0383161790556040516000805160206124b583398151915290610daf9060649061226e565b60405180910390a15b5050505050505050505050565b60075490565b610dd760016000611b28565b610de360026000611b0a565b6008546001600160401b03811115610e0b57634e487b7160e01b600052604160045260246000fd5b604051908082528060200260200182016040528015610e34578160200160208202803683370190505b508051610e4991600291602090910190611b46565b5060005b600854811015610ebd57828282818110610e7757634e487b7160e01b600052603260045260246000fd5b9050602002013560028281548110610e9f57634e487b7160e01b600052603260045260246000fd5b60009182526020909120015580610eb58161246d565b915050610e4d565b5060005b600854811015610fdc5760006009546001600160401b03811115610ef557634e487b7160e01b600052604160045260246000fd5b604051908082528060200260200182016040528015610f1e578160200160208202803683370190505b509050858583818110610f4157634e487b7160e01b600052603260045260246000fd5b9050602002810190610f5391906122e9565b80806020026020016040519081016040528093929190818152602001838360200280828437600092018290525060018054808201825591528451949550610fc7947fb10e2d527612073b26eecdfd717e6a320cf44b4afac2b0732d9fcbe2b7fa0cf690910193506020860192509050611b46565b50508080610fd49061246d565b915050610ec1565b5050600f805460ff60a01b1916600160a01b179055505050565b6000546001600160a01b0316321461100d57600080fd5b600a805460ff19166001179055565b600c5442106112305760005b6001548110156111825760006001828154811061105557634e487b7160e01b600052603260045260246000fd5b6000918252602090912001546001600160401b0381111561108657634e487b7160e01b600052604160045260246000fd5b6040519080825280602002602001820160405280156110af578160200160208202803683370190505b509050600182815481106110d357634e487b7160e01b600052603260045260246000fd5b9060005260206000200180548060200260200160405190810160405280929190818152602001828054801561112757602002820191906000526020600020905b815481526020019060010190808311611113575b50505050509050806003838154811061115057634e487b7160e01b600052603260045260246000fd5b90600052602060002001908051906020019061116d929190611b46565b5050808061117a9061246d565b915050611028565b5060005b600254811015611201576000600282815481106111b357634e487b7160e01b600052603260045260246000fd5b9060005260206000200154905080600483815481106111e257634e487b7160e01b600052603260045260246000fd5b60009182526020909120015550806111f98161246d565b915050611186565b50600d5461120f90426123dc565b600c5561121e600b6000611b0a565b60065461122c9060016123dc565b6006555b565b600a5460ff1661124157600080fd5b60408051631bac191360e31b8152905160019182913291309163dd60c89891600480820192602092909190829003018186803b15801561128057600080fd5b505afa158015611294573d6000803e3d6000fd5b505050506040513d601f19601f820116820180604052508101906112b891906120bd565b61132157600b80546001810182556000919091526000805160206124d58339815191520180546001600160a01b0319166001600160a01b0383161790556040516000805160206124b5833981519152906113149060649061226e565b60405180910390a161145b565b60005b306001600160a01b031663dd60c8986040518163ffffffff1660e01b815260040160206040518083038186803b15801561135d57600080fd5b505afa158015611371573d6000803e3d6000fd5b505050506040513d601f19601f8201168201806040525081019061139591906120bd565b8110156113f357600b81815481106113bd57634e487b7160e01b600052603260045260246000fd5b6000918252602090912001546001600160a01b03838116911614156113e157600093505b806113eb8161246d565b915050611324565b50821561145b57600b80546001810182556000919091526000805160206124d58339815191520180546001600160a01b0319166001600160a01b0383161790556040516000805160206124b5833981519152906114529060649061226e565b60405180910390a15b50505050505050565b600b5490565b815161147d906001906020850190611b91565b508051610903906002906020840190611b46565b6000546001600160a01b031681565b6040805160a081018252855160608201908152602080880151608084015290825282518084018452865181528682015181830152818301528251808401845285518152858201519181019190915281830152600f549151632cd50d6f60e01b81526000926001600160a01b031690632cd50d6f906115249084908790600401612277565b60206040518083038186803b15801561153c57600080fd5b505afa158015611550573d6000803e3d6000fd5b505050506040513d601f19601f820116820180604052508101906115749190612085565b9695505050505050565b6000306001600160a01b031663dd60c8986040518163ffffffff1660e01b815260040160206040518083038186803b1580156115b957600080fd5b505afa1580156115cd573d6000803e3d6000fd5b505050506040513d601f19601f820116820180604052508101906115f191906120bd565b905060008113156109035780600114156117555760005b8281101561082a57600084848381811061163257634e487b7160e01b600052603260045260246000fd5b905060200281019061164491906122e9565b90506001600160401b0381111561166b57634e487b7160e01b600052604160045260246000fd5b604051908082528060200260200182016040528015611694578160200160208202803683370190505b5090508484838181106116b757634e487b7160e01b600052603260045260246000fd5b90506020028101906116c991906122e9565b8080602002602001604051908101604052809392919081815260200183836020028082843760009201919091525050600180549394508493909250859150811061172357634e487b7160e01b600052603260045260246000fd5b906000526020600020019080519060200190611740929190611b46565b5050808061174d9061246d565b915050611608565b60005b8281101561090157600084848381811061178257634e487b7160e01b600052603260045260246000fd5b905060200281019061179491906122e9565b90506001600160401b038111156117bb57634e487b7160e01b600052604160045260246000fd5b6040519080825280602002602001820160405280156117e4578160200160208202803683370190505b509050600085858481811061180957634e487b7160e01b600052603260045260246000fd5b905060200281019061181b91906122e9565b90506001600160401b0381111561184257634e487b7160e01b600052604160045260246000fd5b60405190808252806020026020018201604052801561186b578160200160208202803683370190505b50905085858481811061188e57634e487b7160e01b600052603260045260246000fd5b90506020028101906118a091906122e9565b808060200260200160405190810160405280939291908181526020018383602002808284376000920182905250600180549596509094909350879250821090506118fa57634e487b7160e01b600052603260045260246000fd5b6000918252602090912001546001600160401b0381111561192b57634e487b7160e01b600052604160045260246000fd5b604051908082528060200260200182016040528015611954578160200160208202803683370190505b5090506001848154811061197857634e487b7160e01b600052603260045260246000fd5b906000526020600020018054806020026020016040519081016040528092919081815260200182805480156119cc57602002820191906000526020600020905b8154815260200190600101908083116119b8575b5050505050905060005b8151811015611ab35785828281518110611a0057634e487b7160e01b600052603260045260246000fd5b6020026020010151848381518110611a2857634e487b7160e01b600052603260045260246000fd5b6020026020010151611a3a919061242e565b611a4491906123f4565b828281518110611a6457634e487b7160e01b600052603260045260246000fd5b6020026020010151611a76919061239b565b848281518110611a9657634e487b7160e01b600052603260045260246000fd5b602090810291909101015280611aab8161246d565b9150506119d6565b508260018581548110611ad657634e487b7160e01b600052603260045260246000fd5b906000526020600020019080519060200190611af3929190611b46565b505050508080611b029061246d565b915050611758565b50805460008255906000526020600020908101906105869190611bea565b50805460008255906000526020600020908101906105869190611bff565b828054828255906000526020600020908101928215611b81579160200282015b82811115611b81578251825591602001919060010190611b66565b50611b8d929150611bea565b5090565b828054828255906000526020600020908101928215611bde579160200282015b82811115611bde5782518051611bce918491602090910190611b46565b5091602001919060010190611bb1565b50611b8d929150611bff565b5b80821115611b8d5760008155600101611beb565b80821115611b8d576000611c138282611b0a565b50600101611bff565b6000611c2f611c2a8461237b565b61232f565b9050808260208681870286011115611c4657600080fd5b60005b86811015611c6557823584529281019291810191600101611c49565b505050509392505050565b60008083601f840112611c81578182fd5b5081356001600160401b03811115611c97578182fd5b6020830191508360208083028501011115611cb157600080fd5b9250929050565b600082601f830112611cc8578081fd5b81356020611cd8611c2a83612358565b8281528181019085830183850287018401881015611cf4578586fd5b855b85811015611d1257813584529284019290840190600101611cf6565b5090979650505050505050565b600082601f830112611d2f578081fd5b611d3b8360b784611c1c565b9392505050565b8060408101831015611d5357600080fd5b92915050565b600082601f830112611d69578081fd5b611d3b83600284611c1c565b600060208284031215611d86578081fd5b81356001600160a01b0381168114611d3b578182fd5b60008060208385031215611dae578081fd5b82356001600160401b03811115611dc3578182fd5b611dcf85828601611c70565b90969095509350505050565b60008060008060408587031215611df0578182fd5b84356001600160401b0380821115611e06578384fd5b611e1288838901611c70565b90965094506020870135915080821115611e2a578384fd5b50611e3787828801611c70565b95989497509550505050565b600080600080600080600080611820808a8c031215611e60578485fd5b89356001600160401b0380821115611e76578687fd5b611e828d838e01611c70565b909b50995060208c0135915080821115611e9a578687fd5b50611ea78c828d01611c70565b9098509650611ebb90508b60408c01611d42565b94506101008a018b811115611ece578485fd5b60808b019450611ede8c82611d42565b9350508a818b011115611eef578182fd5b50610140890190509295985092959890939650565b60008060408385031215611f16578182fd5b82356001600160401b0380821115611f2c578384fd5b818501915085601f830112611f3f578384fd5b81356020611f4f611c2a83612358565b82815281810190858301885b85811015611f8457611f728c8684358b0101611cb8565b84529284019290840190600101611f5b565b50909750505086013592505080821115611f9c578283fd5b50611fa985828601611cb8565b9150509250929050565b60008060208385031215611fc5578182fd5b82356001600160401b03811115611dc3578283fd5b6000806000806117e08587031215611ff0578182fd5b611ffa8686611d59565b9350604086605f87011261200c578283fd5b600261201a611c2a8261237b565b8083890160c08a018b81111561202e578788fd5b875b85811015612056576120428d84611d59565b855260209094019391860191600101612030565b508298506120648c82611d59565b975050505050505061207a866101008701611d1f565b905092959194509250565b600060208284031215612096578081fd5b81518015158114611d3b578182fd5b6000602082840312156120b6578081fd5b5035919050565b6000602082840312156120ce578081fd5b5051919050565b6000815180845260208085018081965082840281019150828601855b8581101561211b578284038952612109848351612128565b988501989350908401906001016120f1565b5091979650505050505050565b6000815180845260208085019450808401835b838110156121575781518752958201959082019060010161213b565b509495945050505050565b8060005b6002811015610901578151845260209384019390910190600101612166565b80518252602090810151910152565b6001600160a01b0391909116815260200190565b600060208252611d3b60208301846120d5565b6000606082526121ce60608301866120d5565b82810360208401526121e08186612128565b915050826040830152949350505050565b600060208252611d3b6020830184612128565b6117e081016040808784376000838201818152879190815b600281101561223c5784848337908401828152928401929060010161221c565b5050828760c0870137610100850192508083526116e0868437835250909695505050505050565b901515815260200190565b90815260200190565b60006117e08201905061228b828551612185565b60208085015161229f604085018251612162565b8101516122af6080850182612162565b5060408501516122c260c0850182612185565b5061010083018460005b60b7811015611c65578151835291830191908301906001016122cc565b6000808335601e198436030181126122ff578283fd5b8301803591506001600160401b03821115612318578283fd5b6020908101925081023603821315611cb157600080fd5b6040518181016001600160401b03811182821017156123505761235061249e565b604052919050565b60006001600160401b038211156123715761237161249e565b5060209081020190565b60006001600160401b038211156123945761239461249e565b5060200290565b600080821280156001600160ff1b03849003851316156123bd576123bd612488565b600160ff1b83900384128116156123d6576123d6612488565b50500190565b600082198211156123ef576123ef612488565b500190565b60008261240f57634e487b7160e01b81526012600452602481fd5b600160ff1b82146000198414161561242957612429612488565b500590565b60008083128015600160ff1b85018412161561244c5761244c612488565b6001600160ff1b038401831381161561246757612467612488565b50500390565b600060001982141561248157612481612488565b5060010190565b634e487b7160e01b600052601160045260246000fd5b634e487b7160e01b600052604160045260246000fdfe5195fa817ee617da82160ddb6650792198e41584ba052e1adbb0562a2602bc320175b7a638427703f0dbe7bb9bbf987a2551717b34e79f33b5b1008d1fa01db9a2646970667358221220dc79efa9ad65b4ad5df5a132b8318c49f4a6fd51ae68e10fc996073cbe21fcf264736f6c63430008000033",
  "immutableReferences": {},
  "source": "// SPDX-License-Identifier: MIT\r\npragma solidity ^0.8.0;\r\n\r\nimport \"./verifier.sol\";\r\npragma experimental ABIEncoderV2;\r\n\r\ncontract FederatedModel {\r\n    address public administrator;\r\n\r\n    //  int256[] private global_weights;\r\n    //  int256 private global_bias;\r\n    //    int256 private precision=10000;\r\n    //   int256 learning_rate;\r\n    //  uint256 private dimension;\r\n    //    bool public isTraining=true;\r\n    //   address[] private participating_devices;\r\n    //  mapping(address => int256[]) private localWeightsMappings;\r\n    //    mapping(address => int256) private localBiasMappings;\r\n\r\n    int256[][] private temp_global_weights;\r\n    int256[] private temp_global_bias;\r\n    int256[][] private global_weights;\r\n    int256[] private global_bias;\r\n    int256 private precision;\r\n    uint256 private round_Number;\r\n    int256 private learning_rate;\r\n    uint256 private outputDimension;\r\n    uint256 private inputDimension;\r\n    bool private isTraining = true;\r\n    address[] private participating_devices;\r\n    uint256 private intervalEnd;\r\n    uint256 private updateInterval;\r\n    uint256 private batchSize;\r\n    Verifier private verifier;\r\n    bool private initialized = false;\r\n\r\n    constructor(\r\n        uint256 id,\r\n        uint256 od,\r\n        int256 learning_rate_,\r\n        int256 precision_,\r\n        uint256 batchSize_,\r\n        uint256 updateInterval_\r\n    ) public {\r\n        learning_rate = learning_rate_;\r\n        administrator = tx.origin;\r\n        outputDimension = od;\r\n        inputDimension = id;\r\n        batchSize = batchSize_;\r\n        precision = precision_;\r\n        intervalEnd = block.timestamp + updateInterval_;\r\n        updateInterval = updateInterval_;\r\n        round_Number = 1;\r\n    }\r\n\r\n    function updateVerifier(address verifier_address) external {\r\n        verifier = Verifier(verifier_address);\r\n    }\r\n\r\n    function initModel(\r\n        int256[][] calldata local_weights,\r\n        int256[] calldata local_bias\r\n    ) external {\r\n        delete temp_global_weights;\r\n        delete temp_global_bias;\r\n        temp_global_bias = new int256[](outputDimension);\r\n        for (uint256 i = 0; i < outputDimension; i++) {\r\n            temp_global_bias[i] = local_bias[i];\r\n        }\r\n        for (uint256 i = 0; i < outputDimension; i++) {\r\n            int256[] memory temp_row = new int256[](inputDimension);\r\n            temp_row = local_weights[i];\r\n            temp_global_weights.push(temp_row);\r\n        }\r\n        initialized = true;\r\n    }\r\n\r\n    //    function resetModel() external {\r\n    //        delete temp_global_weights;\r\n    //        delete temp_global_bias;\r\n    //        temp_global_bias =new int256[](outputDimension);\r\n    //        for(uint256 i=0;i< outputDimension;i++){\r\n    //            int randomNumber=int(random(i)% outputDimension);\r\n    //            if(randomNumber==0) {\r\n    //                randomNumber=1*precision;\r\n    //            }\r\n    //            if(randomNumber%2==0){\r\n    //                temp_global_bias[i]=randomNumber*precision;\r\n    //            }\r\n    //            else{\r\n    //                temp_global_bias[i]=-randomNumber*precision;\r\n    //            }\r\n    //        }\r\n    //        for(uint256 i=0;i< outputDimension;i++){\r\n    //            int256[] memory temp_row=new int256[](inputDimension);\r\n    //            for(uint256 j=0;j< inputDimension;j++){\r\n    //                int randomNumber=int(random(j)% inputDimension);\r\n    //                if(randomNumber==0) {\r\n    //                    randomNumber=1*precision;\r\n    //                }\r\n    //                if(randomNumber%2==0){\r\n    //                    temp_row[j]=randomNumber*precision;\r\n    //                }\r\n    //                else{\r\n    //                    temp_row[j]=-randomNumber*precision;\r\n    //                }\r\n    //            }\r\n    //            temp_global_weights.push(temp_row);\r\n    //        }\r\n    //    }\r\n\r\n    function map_temp_to_global() external onlyAdmin {\r\n        delete global_bias;\r\n        delete global_weights;\r\n\r\n        for (uint256 i = 0; i < temp_global_weights.length; i++) {\r\n            int256[] memory temp = new int256[](temp_global_weights[i].length);\r\n            temp = temp_global_weights[i];\r\n            global_weights.push(temp);\r\n        }\r\n        for (uint256 i = 0; i < temp_global_bias.length; i++) {\r\n            int256 temp = temp_global_bias[i];\r\n            global_bias.push(temp);\r\n        }\r\n    }\r\n\r\n    function get_global_weights() external view returns (int256[][] memory) {\r\n        return global_weights;\r\n    }\r\n\r\n    function get_global_bias() external view returns (int256[] memory) {\r\n        return global_bias;\r\n    }\r\n\r\n    function time_until_next_update_round() external returns (int256) {\r\n        return int(intervalEnd) - int(block.timestamp);\r\n    }\r\n\r\n    //\r\n    function end_update_round() external {\r\n        if (block.timestamp >= intervalEnd) {\r\n            for (uint256 i = 0; i < temp_global_weights.length; i++) {\r\n                int256[] memory temp = new int256[](\r\n                    temp_global_weights[i].length\r\n                );\r\n                temp = temp_global_weights[i];\r\n                global_weights[i] = temp;\r\n            }\r\n            for (uint256 i = 0; i < temp_global_bias.length; i++) {\r\n                int256 temp = temp_global_bias[i];\r\n                global_bias[i] = temp;\r\n            }\r\n            intervalEnd = block.timestamp + updateInterval;\r\n            delete participating_devices;\r\n            round_Number = round_Number + 1;\r\n        }\r\n    }\r\n\r\n    function is_Training() external returns (bool) {\r\n        return isTraining;\r\n    }\r\n\r\n    function roundUpdateOutstanding() external returns (bool) {\r\n        if (initialized) {\r\n            address user = tx.origin;\r\n            bool new_user = true;\r\n            for (uint256 i = 0; i < this.participantsCount(); i++) {\r\n                if (user == participating_devices[i]) {\r\n                    new_user = false;\r\n                }\r\n            }\r\n            return new_user;\r\n        } else {\r\n            return false;\r\n        }\r\n    }\r\n\r\n    //\r\n    //\r\n    event RunMovingAverage(uint256 result);\r\n\r\n    function getTempGlobalAndParticipants() public view returns(int256[][] memory, int256[] memory, uint) {\r\n        return (temp_global_weights, temp_global_bias, participating_devices.length);\r\n    }\r\n\r\n    function setTempGlobal(int256[][] memory newWeights, int256[] memory newBias) external {\r\n        temp_global_weights = newWeights;\r\n        temp_global_bias = newBias; \r\n    }\r\n\r\n    function update_with_proof(\r\n        int256[][] calldata local_weights,\r\n        int256[] calldata local_bias,\r\n        uint[2] calldata a,\r\n        uint[2][2] calldata b,\r\n        uint[2] calldata c,\r\n        uint[183] calldata input\r\n    ) external TrainingMode {\r\n        require(this.checkZKP(a, b, c, input));\r\n        bool newUser = true;\r\n        bool firstUser = true;\r\n        address user = tx.origin;\r\n        if (this.participantsCount() == 0) {\r\n            participating_devices.push(user);\r\n            // this.movingAverageWeights(local_weights); // *\r\n            // this.movingAverageBias(local_bias); // *\r\n            emit RunMovingAverage(100);\r\n        } else {\r\n            for (uint256 i = 0; i < this.participantsCount(); i++) {\r\n                if (user == participating_devices[i]) {\r\n                    newUser = false;\r\n                }\r\n            }\r\n            if (newUser) {\r\n                participating_devices.push(user);\r\n                // this.movingAverageWeights(local_weights); // *\r\n                // this.movingAverageBias(local_bias); // *\r\n                emit RunMovingAverage(100);\r\n            }\r\n        }\r\n    }\r\n\r\n    function update_without_proof(\r\n        int256[][] calldata local_weights,\r\n        int256[] calldata local_bias\r\n    ) external TrainingMode {\r\n        bool newUser = true;\r\n        bool firstUser = true;\r\n        address user = tx.origin;\r\n        if (this.participantsCount() == 0) {\r\n            participating_devices.push(user);\r\n            // this.movingAverageWeights(local_weights);\r\n            // this.movingAverageBias(local_bias);\r\n            emit RunMovingAverage(100);\r\n        } else {\r\n            for (uint256 i = 0; i < this.participantsCount(); i++) {\r\n                if (user == participating_devices[i]) {\r\n                    newUser = false;\r\n                }\r\n            }\r\n            if (newUser) {\r\n                participating_devices.push(user);\r\n                // this.movingAverageWeights(local_weights);\r\n                // this.movingAverageBias(local_bias);\r\n                emit RunMovingAverage(100);\r\n            }\r\n        }\r\n    }\r\n\r\n    function participantsCount() external view returns (uint) {\r\n        uint x = participating_devices.length;\r\n        return x;\r\n    }\r\n\r\n    //\r\n    //\r\n    function movingAverageWeights(int256[][] calldata new_weights) external {\r\n        int256 k = int256(this.participantsCount());\r\n        if (k > 0) {\r\n            if (k == 1) {\r\n                for (uint256 i = 0; i < new_weights.length; i++) {\r\n                    int256[] memory temp = new int256[](new_weights[i].length);\r\n                    temp = new_weights[i];\r\n                    temp_global_weights[i] = temp;\r\n                }\r\n            } else {\r\n                for (uint256 i = 0; i < new_weights.length; i++) {\r\n                    int256[] memory res = new int256[](new_weights[i].length);\r\n                    int256[] memory row_new = new int256[](\r\n                        new_weights[i].length\r\n                    );\r\n                    row_new = new_weights[i];\r\n                    int256[] memory row_old = new int256[](\r\n                        temp_global_weights[i].length\r\n                    );\r\n                    row_old = temp_global_weights[i];\r\n                    for (uint256 j = 0; j < row_old.length; j++) {\r\n                        res[j] = row_old[j] + (row_new[j] - row_old[j]) / k;\r\n                    }\r\n                    temp_global_weights[i] = res;\r\n                }\r\n            }\r\n        }\r\n    }\r\n\r\n    //\r\n    function movingAverageBias(int256[] calldata new_bias) external {\r\n        int256 k = int256(this.participantsCount());\r\n        if (k > 0) {\r\n            if (k == 1) {\r\n                for (uint256 i = 0; i < new_bias.length; i++) {\r\n                    int256 temp = new_bias[i];\r\n                    temp_global_bias[i] = temp;\r\n                }\r\n            } else {\r\n                for (uint256 i = 0; i < new_bias.length; i++) {\r\n                    int256 old_bias_i = temp_global_bias[i];\r\n                    int256 new_bias_i = new_bias[i];\r\n                    int256 res = old_bias_i + (new_bias_i - old_bias_i) / k;\r\n                    temp_global_bias[i] = res;\r\n                }\r\n            }\r\n        }\r\n    }\r\n\r\n    function changeLearningRate(int256 newLearnignRate) external onlyAdmin {\r\n        learning_rate = newLearnignRate;\r\n    }\r\n\r\n    function getLearningRate() external returns (int256) {\r\n        return learning_rate;\r\n    }\r\n\r\n    function getBatchSize() external returns (uint256) {\r\n        return batchSize;\r\n    }\r\n\r\n    function getRoundNumber() external returns (uint256) {\r\n        return round_Number;\r\n    }\r\n\r\n    function getInputDimension() external returns (uint256) {\r\n        return inputDimension;\r\n    }\r\n\r\n    function getOutputDimension() external returns (uint256) {\r\n        return outputDimension;\r\n    }\r\n\r\n    function getPrecision() external returns (int256) {\r\n        return precision;\r\n    }\r\n\r\n    function changePrecision(int256 newPrecision) external onlyAdmin {\r\n        precision = newPrecision;\r\n    }\r\n\r\n    function checkZKP(\r\n        uint[2] memory a,\r\n        uint[2][2] memory b,\r\n        uint[2] memory c,\r\n        uint[183] memory input\r\n    ) public returns (bool) {\r\n        Verifier.Proof memory proof = Verifier.Proof(\r\n            Pairing.G1Point(a[0], a[1]),\r\n            Pairing.G2Point(b[0], b[1]),\r\n            Pairing.G1Point(c[0], c[1])\r\n        );\r\n        return verifier.verifyTx(proof, input);\r\n    }\r\n\r\n    function stopTraining() external onlyAdmin {\r\n        isTraining = false;\r\n    }\r\n\r\n    function startTraining() external onlyAdmin {\r\n        isTraining = true;\r\n    }\r\n\r\n    //\r\n    function random(uint256 seed) private view returns (uint256) {\r\n        return\r\n            uint256(\r\n                keccak256(\r\n                    abi.encodePacked(block.difficulty, block.timestamp, seed)\r\n                )\r\n            );\r\n    }\r\n\r\n    //\r\n    modifier onlyAdmin() {\r\n        require(tx.origin == administrator);\r\n        _;\r\n    }\r\n\r\n    modifier TrainingMode() {\r\n        require(isTraining);\r\n        _;\r\n    }\r\n    modifier RoundFinished() {\r\n        require(int(intervalEnd) - int(block.timestamp) <= 0);\r\n        _;\r\n    }\r\n}\r\n",
  "sourcePath": "D:\\Advancing-Blockchain-Based-Federated-Learning-Through-Verifiable-Off-Chain-Computations\\Blockchain\\Truffle\\contracts\\FederatedModel.sol",
  "compiler": {
    "name": "solc",
    "version": "0.8.0+commit.c7dfd78e.Linux.g++"
  },
  "schemaVersion": "3.4.16",
  "updatedAt": "2024-01-16T17:55:35.775Z",
  "networkType": "ethereum",
  "devdoc": {
    "kind": "dev",
    "methods": {},
    "version": 1
  },
  "userdoc": {
    "kind": "user",
    "methods": {},
    "version": 1
  }
}